:060000000A128A11122809
:10000800FE00030EF0000408F1000A08F200831253
:1000180003137F08F3000A128A15A32D0A128A1502
:10002800C72D83160313061083120313061080309E
:1000380083160313A0002530A1000430A20000306D
:10004800A3000A128A1181260A128A110A128A1535
:10005800DD250A128A11831603134008B001B00780
:100068003F08AF01AF070030B3000030B4000030E4
:10007800B500B101B201A8308400B630A40004086C
:10008800A5000730A6002408840083130008A700F1
:10009800A40A2508840027088000A50AA60B47287B
:1000A800552883120313061683160313B101B201F0
:1000B80075303202303003193102031C6428652878
:1000C8006728762876280130B1070318B20A00306D
:1000D800B20775303202303003193102031C75281B
:1000E8007628672883120313061293017B28831648
:1000F8000313141C802881287B2882288312031369
:10010800130883160313A4002408AF0083120313F3
:1001180093018E2883160313141C932894288E2881
:10012800952883120313130883160313A4002408C5
:10013800B0002F08A400A5012408B1002508B200CA
:100148003108A500A4012408B1002508B200300830
:100158003107B10032080318320AB200320883129C
:100168000313DE01DE07831603133108831203131A
:10017800DD01DD070A128A1125270A128A11831266
:1001880003135D0883160313B300831203135E0879
:1001980083160313B400831203135F088316031333
:1001A800B5003308F4003408F5003508F6000030CF
:1001B800F7000030F8000030F9000A128A150F27FE
:1001C8000A128A110318E928EA2818292D308316FB
:1001D8000313A4002408A800330883120313B600ED
:1001E80083160313340883120313B700831603130B
:1001F800350883120313B8000A128A1595250A12C6
:100208008A1183120313360883160313B30083126B
:100218000313370883160313B40083120313380833
:1002280083160313B5001F29203083160313A40077
:100238002408A8001F293308F4003408F5003508FD
:10024800F6000030F700C830F8004230F9000A1212
:100258008A150F270A128A11031C33293429CF293A
:1002680083160313330883120313E0008316031362
:10027800340883120313E10083160313350883122D
:100288000313E2000030DD00C830DE004230DF003A
:100298000A128A1113250A128A11831203135D08A0
:1002A800A8005E08A9005F08AA000A128A11DB25C7
:1002B8000A128A11831203132808303E8316031387
:1002C800A4002408A9002908D03E83120313B6000D
:1002D800FF3003180030B7000A128A154A260A129E
:1002E8008A11831203133608D0003708D100380862
:1002F800D2000030CD002030CE004130CF000A12AD
:100308008A1125240A128A11831203134D08A800A2
:100318004E08A9004F08AA000A128A11DB250A1202
:100328008A11831203132803FF3A83160313A400C8
:10033800330883120313E00083160313340883126F
:100348000313E10083160313350883120313E20035
:100358000030DD002030DE004130DF000A128A1153
:1003680013250A128A11831203135D08A8005E0878
:10037800A9005F08AA000A128A11DB250A128A114D
:10038800831203132808831603132407303EA5009D
:100398002508AA00022A83160313330883120313BD
:1003A800E00083160313340883120313E100831655
:1003B8000313350883120313E2000030DD002030F8
:1003C800DE004130DF000A128A1113250A128A1151
:1003D800831203135D08A8005E08A9005F08AA003D
:1003E8000A128A11DB250A128A11831203132808BC
:1003F800303E83160313A4002408AA000A30A40080
:100408002408F900330883120313E000831603134A
:10041800340883120313E10083160313350883128B
:100428000313E2000030DD002030DE004130DF0041
:100438000A128A1113250A128A11831203135D08FE
:10044800A8005E08A9005F08AA000A128A11DB2525
:100458000A128A118312031328080A128A15F4252E
:100468000A128A11FF3A013E83160313A5003308C6
:1004780083120313A800831603133408831203138B
:10048800A90083160313350883120313AA000A125E
:100498008A11DB250A128A1183120313280883168E
:1004A80003132507303EA6002608AB002E30A40013
:1004B8002408AC00330883120313A800831603131F
:1004C800340883120313A900831603133508831213
:1004D8000313AA000A128A11DB250A128A11831251
:1004E800031328080A128A1529260A128A11831268
:1004F80003133908B6003A08B7003B08B8000A12D7
:100508008A1595250A128A11831203133608C30027
:100518003708C4003808C50083160313330883124C
:100528000313C00083160313340883120313C10096
:1005380083160313350883120313C2000A128A11A3
:10054800DF220A128A11831203134008D0004108DF
:10055800D1004208D2000030CD002030CE0041301A
:10056800CF000A128A1125240A128A118312031352
:100578004D08A8004E08A9004F08AA000A128A11BF
:10058800DB250A128A11831203132808303E8316CA
:100598000313A4002408AD000730A4002408F400C5
:1005A800A8300A128A11C5270A128A115528552817
:1005B8000A128A111228831203134008C600410840
:1005C800C7004208C8000310470D480DC900490874
:1005D800CC004308C6004408C7004508C8000310FB
:1005E800470D480DC9004908CB004C08031DFD2ADA
:1005F8000E2B4B084C020318022B032B162B4C0313
:10060800FF3A4B07C60019304602031C0C2B0D2B72
:10061800162B0E2B4308C0004408C1004508C20031
:10062800242C242C4B08031D1A2B2A2B4C084B0274
:1006380003181F2B202B2B2B4B03FF3A4C07C6000C
:1006480019304602031C292B2A2B2B2B242C06306D
:10065800C6004608CA00C21F322B332B342BCA17D8
:10066800C51F372B382B392B4A17C117FF30C00548
:10067800FF30C1050030C205C417FF30C305FF3085
:10068800C4050030C5054B084C0203184C2B4D2BF4
:100698007E2B4E2B01300310C30DC40DC50DFF3E3C
:1006A800031D4F2B0130CB024B084C0603195D2B61
:1006B8005E2B762B0130CA024A080739031D652BC9
:1006C800662B4E2B762B762B762B01300310C20C23
:1006D800C10CC00CFF3E031D6A2B0130C600460842
:1006E800CC07762B4C084B06031D7B2B7C2B692BE8
:1006F800B52BB52B4C084B020318832B842BB52B39
:10070800852B01300310C00DC10DC20DFF3E031D26
:10071800862B0130CC024B084C060319942B952BE1
:10072800AD2B0130CA024A080739031D9C2B9D2BAB
:10073800852BAD2BAD2BAD2B01300310C50CC40C94
:10074800C30CFF3E031DA12B0130C6004608CB0792
:10075800AD2B4C084B06031DB22BB32BA02BB52B8E
:10076800B52BCA1FB82BB92BCA2BFF30C006FF30D8
:10077800C106FF30C2060130C0070030031801303F
:10078800C107003003180130C207CA2B4A1FCD2BFE
:10079800CE2BDF2BFF30C306FF30C406FF30C50663
:1007A8000130C307003003180130C40700300318B4
:1007B8000130C507DF2BCA014008C30741080311F0
:1007C8000318410A0319E92BC40742080311031847
:1007D800420A0319F02BC507C51FF32BF42B082C6D
:1007E800FF30C306FF30C406FF30C5060130C3071B
:1007F800003003180130C407003003180130C50762
:10080800CA010314CA0D082C4308F4004408F50073
:100818004508F6004C08C6004608F7004A08C70015
:100828004708F8000A128A157F270A128A117408E5
:1008380083120313C0007508C1007608C200242C77
:100848000800831203134D08D3004E08D4004F0844
:10085800D5000310540D550DD6005608D700D708FB
:10086800031D372C382C402C0030CD000030CE0032
:100878000030CF00122D122D5008D3005108D4009B
:100888005208D5000310540D550DD6005608DC004B
:10089800DC08031D502C512C592C0030CD000030A1
:1008A800CE000030CF00122D122D5C087B3ED30005
:1008B8005308D7074D08D3004E08D4004F08D50079
:1008C80010300310D50CD40CD30CFF3E031D652C3F
:1008D8005308D6005608DC005008D3005108D4004D
:1008E8005208D50010300310D50CD40CD30CFF3EA1
:1008F800031D772C5308D6005608DC068030D30039
:100908005308DC05CE17D117FF30D005FF30D105CD
:100918000030D2050030D8000030D9000030DA00AD
:100928000730D3005308DB00992C4D1C9C2C9D2CC0
:10093800AE2C5008D807510803110318510A03199F
:10094800A62CD907520803110318520A0319AD2C13
:10095800DA07AE2C01300310CF0CCE0CCD0CFF3EC5
:10096800031DAF2C01300310D00DD10DD20DFF3E69
:10097800031DB72C0130DB02031DC32CC42C992C9A
:10098800C52C0930D3005308DB00CA2C4D1CCD2CD4
:10099800CE2CDF2C5008D807510803110318510A30
:1009A8000319D72CD907520803110318520A03193F
:1009B800DE2CDA07DF2C01300310CF0CCE0CCD0C67
:1009C800FF3E031DE02C01300310DA0CD90CD80CC3
:1009D800FF3E031DE82C0130DB02031DF42CF52C2F
:1009E800CA2CF62C5808F4005908F5005A08F600E5
:1009F8005708D3005308F7005C08D4005408F800DF
:100A08000A128A157F270A128A117408831203139F
:100A1800CD007508CE007608CF00122D080083128D
:100A280003136008E3006108E4006208E5000310AE
:100A3800640D650DE6006608EB00EB08031D252D27
:100A4800262D2E2D0030DD000030DE000030DF00C6
:100A5800DA2DDA2D5D08E3005E08E4005F08E500A2
:100A68000310640D650DE6006608EC00EC08031D34
:100A78003E2D3F2D472D0030DD000030DE000030D8
:100A8800DF00DA2DDA2D0030E8000030E900003010
:100A9800EA0089306C07E3006308EB026008E300B2
:100AA8006108E4006208E50010300310E50CE40C6E
:100AB800E30CFF3E031D592D6308E6006608EC00B1
:100AC8005D08E3005E08E4005F08E50010300310ED
:100AD800E50CE40CE30CFF3E031D6B2D6308E600F8
:100AE8006608EC068030E3006308EC05E117FF3088
:100AF800E005FF30E1050030E205DE17FF30DD05D7
:100B0800FF30DE050030DF051830E3006308E7003A
:100B18008D2D01300310E80DE90DEA0DFF3E031D90
:100B28008E2D5F086202031D9F2D5E086102031D62
:100B38009F2D5D086002031CA22DA32DAF2D5D081B
:100B4800E0025E08031C5E0FE1025F08031C5F0AF7
:100B5800E2026814AF2D01300310E00DE10DE20D43
:100B6800FF3E031DB02D0130E702031DBC2DBD2D36
:100B78008D2DBE2D6808F4006908F5006A08F60096
:100B88006B08E3006308F7006C08E4006408F800E9
:100B98000A128A157F270A128A117408831203130E
:100BA800DD007508DE007608DF00DA2D0800831204
:100BB80003132808AC002908AD002A08AE0003106A
:100BC8002D0D2E0DAF002F08B500B508031DED2D16
:100BD800EE2DF82D0030AB000030AA000030A9003F
:100BE8000030A800802E802E2808AC002908AD000F
:100BF8002A08AE0017300310AE0CAD0CAC0CFF3E4B
:100C0800031DFF2D2C08AF002F08B000A917FF30D7
:100C1800A805FF30A9050030AA052808B100290851
:100C2800B2002A08B300B4018E30B502B51F1D2EDC
:100C38001E2E432E3508803A8F3E0318242E252E6B
:100C4800302E0030AB000030AA000030A900003080
:100C5800A800802E802E302E01300310B40CB30C67
:100C6800B20CB10CFF3E031D312E0130AC002C0834
:100C7800B507031D402E412E302E672E672E1830E3
:100C88003502031C482E492E602E0030AB00003080
:100C9800AA000030A9000030A800802E802E602E07
:100CA8000130AC000310B10DB20DB30DB40DAC0B97
:100CB800562E0130B502602EB508031D642E652E30
:100CC800542E672E672E3008031D6B2E772EB10920
:100CD800B209B309B409B10A0319B20A0319B30A6C
:100CE8000319B40A772E3408AB003308AA00320877
:100CF800A9003108A800802E0800831603132308D2
:100D0800BE01BE072208BD01BD0718121815003024
:100D180083120313A7000F30A6004230A50040300D
:100D2800A40083160313220883120313A00083165A
:100D38000313230883120313A100A201A3010A12BB
:100D48008A1576260A128A11831203132308B9001A
:100D58002208B8002108B7002008B6000A128A1530
:100D6800C2260A128A11831203133608E0003708D4
:100D7800E1003808E20083160313210883120313E5
:100D8800B701B70783160313200883120313B601AC
:100D9800B6070A128A150E260A128A11831203133D
:100DA8003608C3003708C4003808C5000030C00042
:100DB8008030C1003F30C2000A128A11DF220A12B5
:100DC8008A11831203134008D0004108D100420859
:100DD800D2000030CD008030CE004130CF000A1262
:100DE8008A1125240A128A11831203134D08DD0083
:100DF8004E08DE004F08DF000A128A1113250A1276
:100E08008A11831203135D08A8005E08A9005F0811
:100E1800AA000A128A11DB250A128A118312031307
:100E280028088316031399009816831203131816BB
:100E3800981783160313871707178B170B178C162A
:100E48000800003083120313E2008030E300FF3013
:100E5800E4007F30E5005D086205E6005E08630592
:100E6800E70064085D05EB0065085E05EC006708AF
:100E78006604031D402F412F772F5E08E1005D08AF
:100E8800E00003300310E10CE00CFF3E031D462F89
:100E98006008EB006108EC000030CD008030CE0027
:100EA8003D30CF006C08B701B7076B08B601B6072D
:100EB8000A128A150E260A128A118312031336089B
:100EC800D0003708D1003808D2000A128A11252428
:100ED8000A128A11831203134D08E8004E08E9002C
:100EE8004F08EA00BD2F5E08EC01EC075D08EB0136
:100EF800EB07EB09EC096C08E1006B08E000033034
:100F08000310E10CE00CFF3E031D842F6008EB008A
:100F18006108EC006B08013EEB006C080318013E09
:100F2800003EEC000030CD008030CE00BD30CF0058
:100F38006C08B701B7076B08B601B6070A128A151D
:100F48000E260A128A11831203133608D0003708B6
:100F5800D1003808D2000A128A1125240A128A11EF
:100F6800831203134D08E8004E08E9004F08EA0011
:100F7800BD2F6808DD006908DE006A08DF00C42F9D
:100F88000800F600F901F42F79087607F5007508CE
:100F9800840083130008831203139900F701F801F2
:100FA80001307802F43003197702031CDC2FDD2F9F
:100FB800DF2FEF2FEF2F0130F7070318F80A003063
:100FC800F80701307802F43003197702031CED2F7B
:100FD800EE2FDF2FEF2F0130F5007508F907F42FFA
:100FE80074087902031CF92FFA2FC82FFB2F080069
:101B1C000034003400340034003400342034831298
:101B2C00031338083704360403199D2D9E2DA12D5F
:101B3C008030B806A12DA22D08008C1EA62DA72D35
:101B4C00A92D8C12A92D7308FF0072088A00710848
:101B5C008400700E8300FE0E7E0E09007E088A0043
:101B6C007F0882000A128A15B4250A128A15800091
:101B7C00840A04087D0603190034FF0A0319FE0ABF
:101B8C00B82D83160313BF01C0018313BD30FD00B4
:101B9C000D30FE008E30FF00B63084000A128A151C
:101BAC00B8250A128A1583010A128A111528831680
:101BBC00031387110716871206128312031394124C
:101BCC001410941014119411141283160313141777
:101BDC00941383120313941606160800831203132E
:101BEC00B800B701381CFB2DFC2D012E7908B6006E
:101BFC003608B707012E0310F90D0310B80CB808FE
:101C0C00031D092E0A2EF82D0B2E37080D2E080059
:101C1C00831203133608F4003708F500F6018E30F2
:101C2C00F9007908F700F8010A128A157F270A12C1
:101C3C008A15740883120313B6007508B70076086A
:101C4C00B800282E0800F900790883120313BC0091
:101C5C00BD01BE013C08F4003D08F5003E08F6004D
:101C6C008E30BF003F08F700F8010A128A157F2753
:101C7C000A128A15740883120313B9007508BA0086
:101C8C007608BB00492E0800F90183120313B71F15
:101C9C00502E512E5A2EB609B709B60A0319B70A97
:101CAC00F9010314F90D5A2E3608F4003708F50023
:101CBC00F6018E30B9003908F7007908BA003A08F5
:101CCC00F8000A128A157F270A128A1574088312E3
:101CDC000313B6007508B7007608B800752E080017
:101CEC000030F8000030F7000030F6000030F5004E
:101CFC007F2E83120313201C842E852E9D2E2408E8
:101D0C00F507250803110318013E03198E2EF6075B
:101D1C00260803110318013E0319952EF70727080F
:101D2C0003110318013E03199C2EF8079D2E013058
:101D3C00F4000310A40DA50DA60DA70DF40B9F2EFA
:101D4C0001300310A30CA20CA10CA00CFF3E031D30
:101D5C00A72E2308220421042004031DB62EB72E1F
:101D6C007F2EB82E7808A3007708A2007608A10071
:101D7C007508A000C12E080083120313BD018E301C
:101D8C00BA003A08BC00B91FCC2ECD2EEB2EB609EA
:101D9C00B709B809B909B60A0319B70A0319B80A79
:101DAC000319B90ABD010314BD0DEB2EEB2E013046
:101DBC000310B90CB80CB70CB60CFF3E031DDE2E8D
:101DCC000130BA003A08BC07EB2EFF303905031D71
:101DDC00F02EF12EDD2EF22E3608F4003708F50029
:101DEC003808F6003C08BA003A08F7003D08BB007A
:101DFC003B08F8000A128A157F270A128A15740804
:101E0C0083120313B6007508B7007608B8000E2FBE
:101E1C000800F61F122F132F3B2F003083120313D1
:101E2C00A0000030A1008030A2007409A300750945
:101E3C00A4007609A500A30A0319A40A0319A50A8C
:101E4C002308A00724080318240F2D2F2E2FA107D9
:101E5C0025080318250F332F342FA2072008F40070
:101E6C002108F5002208F6003B2FF91F3E2F3F2FCB
:101E7C00672F003083120313A0000030A1008030C4
:101E8C00A2007709A3007809A4007909A500A30A88
:101E9C000319A40A0319A50A2308A0072408031888
:101EAC00240F592F5A2FA10725080318250F5F2F30
:101EBC00602FA2072008F7002108F8002208F9007B
:101ECC00672F8030F6068030F90679087602031DFC
:101EDC00752F78087502031D752F77087402031887
:101EEC00782F792F7B2F03107E2F03147E2F7E2FBC
:101EFC0008007708031D832F8B2F76087504740454
:101F0C00031D892F8A2FA32F8B2F0030F400003054
:101F1C00F5000030F600FF2FFF2FA32F01308312A6
:101F2C000313A0002008F70701300310F60CF50C82
:101F3C00F40CFF3E031D9B2FA32FFE307605031DD3
:101F4C00A82FA92F942FC32FC32F01308312031353
:101F5C00A0002008F7070130F40700300318013007
:101F6C00F507003003180130F60701300310F60CAA
:101F7C00F50CF40CFF3E031DBC2FFF307605031D42
:101F8C00C82FC92FAB2FD62FD62F0130F702013017
:101F9C000310F40DF50DF60DFF3E031DCE2FD62FBD
:101FAC00F51FD92FDA2FCB2F7718DD2FDE2FE42F4B
:101FBC00FF30F4057F30F505FF30F6050310F70C04
:101FCC00770883120313A000A101A20110300310A3
:101FDC00A00DA10DA20DFF3E031DED2F2008F40452
:101FEC002108F5042208F6047808031DFE2FFF2FA4
:041FFC00F6170800CC
:00000001FF
