:060000000A128A113C2ED9
:100C10003434643400340034C834003421340034B3
:100C200000340F347E088A007F0882000A128A117D
:100C300012260A128A118000840A04087D0603190C
:100C40000034FF0A0319FE0A162E83160313071633
:100C500087128711061283120313061683160313D5
:100C6000941314178312031394161412941114116D
:100C70009410141006160800B701B801B901BA01A2
:100C8000BB01BC01BD01BE01BF01C00183134B30DC
:100C9000FD000630FE000830FF00413084000A12DB
:100CA0008A1116260A128A1183010A128A11242F28
:100CB000831203130612053093005E2E831603136E
:100CC000141C632E642E5E2E652E831203131308EC
:100CD000F0007008F10093016D2E83160313141CAD
:100CE000722E732E6D2E742E831203131308F000D0
:100CF0007008F200061672087D2E08000030F3001E
:100D00000030F2000030F1000030F0000030F3005D
:100D10000030F2000030F1000030F00000307302CB
:100D2000031D9C2E00307202031D9C2EC3307102E5
:100D3000031D9C2E50307002031C9F2EA02EA22E4D
:100D4000C42EC42E00000130F0070030031801301B
:100D5000F107003003180130F207003003180130AA
:100D6000F30700307302031DBF2E00307202031D13
:100D7000BF2EC3307102031DBF2E50307002031C02
:100D8000C22EC32EA22EC42E0800F500F601182F85
:100D900083120313061203309300CE2E831603131F
:100DA000141CD32ED42ECE2ED52E8312031313084B
:100DB000F2007208F40071087607F200F301F30DF7
:100DC00073089300E32E83160313141CE82EE92EF8
:100DD000E32EEA2E831203131308F2007208F400C4
:100DE000760871079300F42E83160313141CF92E52
:100DF000FA2EF42EFB2E831203131308F20072084E
:100E0000F4009301032F83160313141C082F092FDA
:100E1000032F0A2F831203131308F20076087507B5
:100E2000F300730884007208831380000616182FDD
:100E30000130F2007208F6077608013A031D212FEF
:100E4000222FC82E232F0800203084004130F700C5
:100E50000408F8000A30F9007708840083130008BA
:100E6000FA00F70A780884007A088000F80AF90B7B
:100E70002C2F2A3084003730F7000408F8000A309D
:100E8000F9007708840083130008FA00F70A78084D
:100E900084007A088000F80AF90B412F83120313AB
:100EA000B4010A30F7007708B600B5010A128A11BA
:100EB00025260A128A115C2F0A128A1158260A1254
:100EC0008A11F700770883120313B5003608F7007C
:100ED0007708F0003030F8007808F10020300A126E
:100EE0008A118E270A128A110A128A117E260A1284
:100EF0008A11831203133608F7007708F0003030A8
:100F0000F8007808F1002A300A128A11C5260A1260
:100F10008A115C2F5C2F0A128A110028F400F60156
:100F2000F42F83120313061206309300972F8316B3
:100F30000313141C9C2F9D2F972F9E2F8312031396
:100F40001308F2007208F50006160612023093002C
:100F5000A92F83160313141CAE2FAF2FA92FB02F68
:100F6000831203131308F2007208F5007108760764
:100F7000F200F301F30D73089300BE2F83160313E1
:100F8000141CC32FC42FBE2FC52F831203131308A5
:100F9000F2007208F500760871079300CF2F8316D0
:100FA0000313141CD42FD52FCF2FD62F8312031346
:100FB0001308F2007208F50076087407F200720850
:100FC0008400831300089300E52F83160313141C79
:100FD000EA2FEB2FE52FEC2F831203131308F200F7
:100FE0007208F5000616F42F0130F2007208F607B9
:100FF0007608013A031DFD2FFE2F912FFF2F0800C9
:00000001FF
